S01400006D6F746F72436F6E74726F6C2E73726563FE
S11300000C942A000C943F000C943F000C943F0085
S11300100C943F000C943F000C943F000C943F0060
S11300200C943F000C943F000C943F000C943F0050
S11300300C943F000C943F000C943F000C943F0040
S11300400C943F000C943F000C943F000C943F0030
S11300500C943F0011241FBECFE5D8E0DEBFCDBF16
S113006010E0A0E6B0E0E2E5F2E002C005900D92F7
S1130070A23CB107D9F70E94B1000C9427010C945B
S1130080000087E689B910BC86E880BD88E18AB99A
S113009008955F9BFECF8CB108955D9BFECF8CB914
S11300A00895CF93DF93EC018881882331F0219662
S11300B00E944D0089918111FBCFDF91CF9108956A
S11300C0CF93DF9300D000D01F92CDB7DEB73A8331
S11300D04B835C836D83281307C088E088BB81E071
S11300E085BB83E082BB26C09A81981306C018BAE8
S11300F082E085BB83E882BB1DC09B81981306C048
S113010081E085BB18BA83E082BB14C09C8198133C
S113011006C088E088BB15BA83E082BB0BC09D8112
S1130120981305C015BA18BA83E082BB03C015BA88
S113013083E082BB0F900F900F900F900F90DF9190
S1130140CF91089587B38A6087BB84B3836084BBEF
S113015081B3826881BB909AC09A81B78A6A81BF51
S11301600895CF93DF9300D000D01F92CDB7DEB7B0
S113017067E670E080E090E00E9441000E94A200E7
S113018080E690E00E94510007E70F2EF3E7FF2E70
S1130190F02D0F2EF1E6DF2EF02D0F2EF4E6EF2ECC
S11301A0F02D18E70E944900873769F489E690E04A
S11301B00E945100202F3F2D4D2D5E2D612F802F49
S11301C00E946000EFCF833769F48DE790E00E94CE
S11301D05100202F3F2D4D2D5E2D612F8F2D0E941C
S11301E06000E0CF843669F481E990E00E94510018
S11301F0202F3F2D4D2D5E2D612F8E2D0E946000EE
S1130200D1CF813669F483EA90E00E945100202F17
S11302103F2D4D2D5E2D612F8D2D0E946000C2CF8C
S1130220883769F484EB90E00E945100202F3F2D21
S11302304D2D5E2D612F812F0E946000B3CF202FA2
S11302403F2D4D2D5E2D612F0E946000ABCFF894A1
S1050250FFCFDA
S113025248656C6C6F210D0A004D6F76696E6720DC
S1130262466F72776172642E2E2E0D0A004D6F76E0
S1130272696E6720526576657273652E2E2E0D0A9D
S1130282004D6F76696E672052696768742E2E2E50
S11302920D0A004D6F76696E67204C6566742E2ECA
S11302A22E0D0A0053746F7070696E672E2E2E0D18
S10502B20A003C
S9030000FC
