S01400006D6F746F72436F6E74726F6C2E73726563FE
S11300000C942A000C943F000C943F000C943F0085
S11300100C943F000C943F000C943F000C943F0060
S11300200C943F000C943F000C943F000C943F0050
S11300300C943F000C943F000C943F000C943F0040
S11300400C943F000C943F000C943F000C943F0030
S11300500C943F0011241FBECFE5D8E0DEBFCDBF16
S113006010E0A0E6B0E0EEECFBE002C005900D92DB
S1130070AA3BB107D9F70E9460020C94E5050C94E1
S1130080000087E689B910BC86E880BD88E18AB99A
S113009008955D9BFECF8CB90895CF93DF93EC0157
S11300A08881882331F021960E9449008991811129
S11300B0FBCFDF91CF9108955F9907C0615071091B
S11300C081099109C9F780E00895672B682B692B92
S11300D011F08CB1089580E00895CF93DF9300D0A0
S11300E000D01F92CDB7DEB729833A834B835C835C
S11300F06D83281351C093B5809161008917B8F4BA
S113010028B539B590E08217930788F41CBE1BBC50
S11301101ABC83B590916100891B83BD88B599B5DC
S113012020916100821B910999BD88BDA2C113BCB5
S113013019BC18BC2CB7309162008FEF90E0831B80
S1130140910930E02817390704F52AB53BB528177B
S11301503907D8F48CB78C3350F48AB59BB5CC9757
S113016030F48CE38CBF8CE390E09BBD8ABD9CB7DC
S113017080916200890F8CBF8AB59BB52091620083
S1130180820F911D9BBD8ABD74C18FEF8CBF8FEF11
S113019090E09BBD8ABD6DC19A81981351C09CB7F4
S11301A0809161008917B8F42AB53BB590E08217B5
S11301B0930788F413BC19BC18BC8CB790916100E8
S11301C0891B8CBF8AB59BB520916100821B910964
S11301D09BBD8ABD4EC11CBE1BBC1ABC23B530914D
S11301E062008FEF90E0831B910930E028173907F4
S11301F004F528B539B528173907D8F483B58C33F5
S113020050F488B599B5CC9730F48CE383BD8CE376
S113021090E099BD88BD93B580916200890F83BD3C
S113022088B599B520916200820F911D99BD88BD52
S113023020C18FEF83BD8FEF90E099BD88BD19C1B8
S11302409B8198135AC093B5809161008917B8F4C3
S113025028B539B590E08217930788F41CBE1BBCFF
S11302601ABC83B590916100891B83BD88B599B58B
S113027020916100821B910999BD88BDFAC013BC0D
S113028019BC18BC2CB730E0409162008FEF90E0AD
S1130290841B910928173907DCF48CB78C3310F4CC
S11302A08CE38CBF9CB780916200890F8CBF2AB508
S11302B03BB58091610090E08217930708F0D9C0A4
S11302C02AB53BB5A901481B590B5BBD4ABDD1C03A
S11302D08FEF8CBF2AB53BB58091610090E0821707
S11302E0930740F42AB53BB5A901481B590B5BBDE4
S11302F04ABDBFC01BBC1ABCBCC09C81981353C070
S113030093B5809161008917B8F428B539B590E0A8
S11303108217930788F41CBE1BBC1ABC83B590914A
S11303206100891B83BD88B599B520916100821B4A
S1130330910999BD88BD9DC013BC19BC18BC2AB5D0
S11303403BB5409162008FEF90E0841B9109281720
S11303503907D0F48AB59BB5CC9720F48CE390E0B0
S11303609BBD8ABD8AB59BB520916200820F911D09
S11303709BBD8ABD9CB780916100891708F079C044
S11303809CB7981B9CBF75C08FEF90E09BBD8ABD46
S11303909CB780916100891720F49CB7981B9CBF7F
S11303A068C01CBE66C09CB7809162008917A8F41F
S11303B04AB55BB5282F30E02417350770F48CB7A5
S11303C090916000891B8CBF8AB59BB52091600019
S11303D0821B91099BBD8ABD4CC048B559B5282FD5
S11303E030E02417350788F493B5891770F483B582
S11303F090916000891B83BD88B599B520916000F8
S1130400821B910999BD88BD34C09CB7891730F40B
S11304108CB790916000891B8CBF2BC04AB55BB52B
S11304202417350748F48AB59BB520916000821BD8
S113043091099BBD8ABD1DC048B559B52417350720
S113044048F488B599B520916000821B910999BD43
S113045088BD0FC093B5891730F483B590916000BF
S1130460891B83BD06C01CBE1BBC1ABC13BC19BCB3
S113047018BC0F900F900F900F900F90DF91CF91B9
S1130480089587B38A6087BB81B3826B81BB909ADE
S1130490C09A81B78A6A81BF089583B7896683BF8A
S11304A08FB5816A8FBD8EB589608EBD85B589662D
S11304B085BD08958EB581608EBD1DBC1CBC08959C
S11304C0CF93DF93CDB7DEB7CD5CD1090FB6F894E7
S11304D0DEBF0FBECDBF67E670E080E090E00E9413
S11304E041000E9441020E944D020E945A0283E68A
S11304F090E00E944D0087E7C753DF4F8883C95CB3
S1130500D04083E7C653DF4F8883CA5CD04081E67E
S1130510C553DF4F8883CB5CD04084E6C453DF4FA0
S11305208883CC5CD04088E7C353DF4F8883CD5C9D
S1130530D04000E010E0712C812CAA24A394B12CAB
S11305400F2EFCE6CF2EF0E0DF2EF02DCE0101962B
S11305507C018CB59DB58131974268F01DBC1CBCF3
S11305600F5F1F4F043386E0180728F088B38360B9
S113057088BB072D182D60EA76E881E090E00E94A0
S11305805C00982E89B39A2D2B2D811102C0972DD2
S1130590282D49B38A2D3B2D411102C0872D382DBA
S11305A068B579B5F3B54AB55BB5ECB72F939F93AE
S11305B03F938F937F936F931F92FF935F934F9318
S11305C01F92EF93DF92CF92FF92EF920E940D035E
S11305D0C7010E944D00C753DF4F2881C95CD0403A
S11305E0C653DF4F3881CA5CD040C553DF4F4881C2
S11305F0CB5CD040C453DF4F5881CC5CD040C35354
S1130600DF4F6881CD5CD040892D0E946D000FB60C
S1130610F894DEBF0FBECDBF9CCFAEE0B0E0E3E107
S1130620F3E00C94BC050D891E8986E08C831A8343
S113063009838FEF9FE79E838D83AE01475E5F4FF3
S11306406F89788DCE0101960E9430032F81388501
S1130650F801E20FF31F10822E96E4E00C94D80503
S1130660ACE0B0E0E6E3F3E00C94AE057C016B0192
S11306708A01FC0117821682838181FFBDC1CE01EC
S113068001964C01F7019381F60193FD859193FF47
S113069081916F01882309F4ABC1853239F493FD4C
S11306A0859193FF81916F01853229F4B70190E020
S11306B00E941805E7CF512C312C20E02032A0F401
S11306C08B3269F030F4803259F0833269F420615E
S11306D02CC08D3239F0803339F4216026C0226079
S11306E0246023C0286021C027FD27C030ED380FC7
S11306F03A3078F426FF06C0FAE05F9E300D1124EC
S1130700532E13C08AE0389E300D1124332E2062FC
S11307100CC08E3221F426FD6BC1206406C08C36D9
S113072011F4206802C0883641F4F60193FD8591E6
S113073093FF81916F018111C1CF982F9F7D9554B3
S1130740933028F40C5F1F4FFFE3F9830DC0833609
S113075031F0833771F0833509F05BC022C0F801B2
S1130760808189830E5F1F4F44244394512C54018C
S113077015C03801F2E06F0E711CF801A080B18041
S113078026FF03C0652D70E002C06FEF7FEFC50147
S11307902C870E940D052C0183012C852F77222E96
S11307A017C03801F2E06F0E711CF801A080B1800F
S11307B026FF03C0652D70E002C06FEF7FEFC50117
S11307C02C870E9402052C012C852068222E83018F
S11307D023FC1BC0832D90E048165906B0F4B701E2
S11307E080E290E00E9418053A94F4CFF50127FCCA
S11307F0859127FE81915F01B70190E00E94180561
S113080031103A94F1E04F1A51084114510471F730
S1130810E5C0843611F0893639F5F80127FF07C0A1
S113082060817181828193810C5F1F4F08C0608158
S11308307181072E000C880B990B0E5F1F4F2F76CA
S1130840722E97FF09C090958095709561957F4FA2
S11308508F4F9F4F2068722E2AE030E0A4010E943F
S11308605005A82EA81844C0853729F42F7EB22E2F
S11308702AE030E025C0F22FF97FBF2E8F36C1F079
S113088018F4883579F0B4C0803719F0883721F02E
S1130890AFC02F2F2061B22EB4FE0DC08B2D84600B
S11308A0B82E09C024FF0AC09F2F9660B92E06C037
S11308B028E030E005C020E130E002C020E132E071
S11308C0F801B7FE07C060817181828193810C5F5A
S11308D01F4F06C06081718180E090E00E5F1F4F62
S11308E0A4010E945005A82EA818FB2DFF777F2E87
S11308F076FE0BC0372D3E7FA51450F474FE0AC05B
S113090072FC08C0372D3E7E05C0BA2C372D03C0BB
S1130910BA2C01C0B52C34FF0DC0FE01EA0DF11D47
S11309208081803311F4397E09C032FF06C0B3944C
S1130930B39404C0832F867809F0B39433FD13C0B5
S113094030FF06C05A2CB31418F4530C5B18B32CA4
S1130950B31468F4B70180E290E03C870E94180564
S1130960B3943C85F5CFB31410F43B1801C0312C7B
S113097034FF12C0B70180E390E03C870E94180561
S11309803C8532FF17C031FD03C088E790E002C008
S113099088E590E0B7010CC0832F867859F031FFC9
S11309A002C08BE201C080E237FD8DE2B70190E026
S11309B00E941805A51438F4B70180E390E00E9462
S11309C018055A94F7CFAA94F401EA0DF11D808119
S11309D0B70190E00E941805A110F5CF332009F467
S11309E051CEB70180E290E00E9418053A94F6CF08
S11309F0F7018681978102C08FEF9FEF2C96E2E189
S1130A000C94CA05FC010590615070400110D8F7A0
S1130A10809590958E0F9F1F0895FC016150704042
S1130A2001900110D8F7809590958E0F9F1F08951F
S1130A300F931F93CF93DF93FB01238121FD03C009
S1130A408FEF9FEF28C022FF16C046815781248173
S1130A5035814217530744F4A081B1819D012F5F72
S1130A603F4F318320838C93268137812F5F3F4F03
S1130A703783268310C0EB01092F182F0084F185DA
S1130A80E02D0995892BE1F68E819F8101969F8344
S1130A908E83812F902FDF91CF911F910F91089515
S1130AA0FA01AA27283051F1203181F1E8946F939B
S1130AB06E7F6E5F7F4F8F4F9F4FAF4FB1E03ED041
S1130AC0B4E03CD0670F781F891F9A1FA11D680FDF
S1130AD0791F8A1F911DA11D6A0F711D811D911D12
S1130AE0A11D20D009F468943F912AE0269F112487
S1130AF03019305D3193DEF6CF010895462F4770EB
S1130B00405D4193B3E00FD0C9F7F6CF462F4F7045
S1130B10405D4A3318F0495D31FD4052419302D0A3
S1130B20A9F7EACFB4E0A695979587957795679549
S1130B30BA95C9F700976105710508959B01AC0149
S1130B400A2E06945795479537952795BA95C9F770
S1130B50620F731F841F951FA01D08952F923F924B
S1130B604F925F926F927F928F929F92AF92BF92B9
S1130B70CF92DF92EF92FF920F931F93CF93DF9365
S1130B80CDB7DEB7CA1BDB0B0FB6F894DEBF0FBEC2
S1130B90CDBF09942A88398848885F846E847D840F
S1130BA08C849B84AA84B984C884DF80EE80FD8011
S1130BB00C811B81AA81B981CE0FD11D0FB6F89487
S1110BC0DEBF0FBECDBFED010895F894FFCF48
S1130BCE0A3C1448656C6C6F210D0A004163636521
S1130BDE6C65726174696F6E3A204F4352302025F2
S1130BEE64207C204F435231202564207C204F43C7
S1130BFE5232202564207C204F43523142202564FA
S1130C0E207C2050494E4136202578207C205049A6
S10D0C1E4E41372025780D0A00002E
S9030000FC
