S01400006D6F746F72436F6E74726F6C2E73726563FE
S11300000C942A000C943F000C943F000C943F0085
S11300100C943F000C943F000C943F000C943F0060
S11300200C943F000C943F000C943F000C943F0050
S11300300C943F000C943F000C943F000C943F0040
S11300400C943F000C943F000C943F000C943F0030
S11300500C943F0011241FBECFE5D8E0DEBFCDBF16
S113006010E0A0E6B0E0E6EAF9E002C005900D92E7
S1130070AE3FB107D9F70E94C5000C94D1040C948B
S1130080000087E689B910BC86E880BD88E18AB99A
S113009008955D9BFECF8CB90895CF93DF93EC0157
S11300A08881882331F021960E9449008991811129
S11300B0FBCFDF91CF9108955F9907C0615071091B
S11300C081099109C9F780E00895672B682B692B92
S11300D011F08CB1089580E00895CF93DF9300D0A0
S11300E000D01F92CDB7DEB73A834B835C836D8318
S11300F0281307C088E088BB81E085BB83E082BB0E
S113010027C09A81981306C018BA82E085BB83E899
S113011082BB1EC09B81981306C081E085BB18BAC0
S113012083E082BB15C09C81981306C088E088BB1D
S113013015BA83E082BB0CC09D81981305C015BA23
S113014018BA83E082BB04C015BA18BA83E082BB34
S11301500F900F900F900F900F90DF91CF91089513
S113016087B38A6087BB84B3836084BB81B38268AE
S113017081BB909AC09A81B78A6A81BF08958EB56F
S113018081608EBD1DBC1CBC0895CF93DF93CDB799
S1130190DEB72B970FB6F894DEBF0FBECDBF67E670
S11301A070E080E090E00E9441000E94B0000E9454
S11301B0BF0080E690E00E944D008CB783B5612CAF
S11301C000E010E0412C512C0F2EF7E7EF2EF02D1C
S11301D00F2EF3E7DF2EF02D0F2EF1E67F2EF02DFC
S11301E00F2EF4E6CF2EF02D0F2EF8E7FF2EF02D74
S11301F00F2EF8EE8F2EF0E09F2EF02DCE010196FB
S11302005C0122242A94332433948CB59DB5813126
S1130210974280F01DBC1CBC0F5F1F4F0433B6E037
S11302201B0728F088B3836088BB042D152D88B381
S11302308C7F88BB60EA76E881E090E00E945C00F5
S1130240873791F489E690E00E944D00EF82D886CA
S11302507986CA86FB862E2D3D2D472D5C2D6F2D6C
S11302608E2D0E946D00D1CF833791F48DE790E0FD
S11302700E944D00EF82D8867986CA86FB862E2D91
S11302803D2D472D5C2D6F2D8D2D0E946D00BDCF12
S1130290843691F481E990E00E944D00EF82D88683
S11302A07986CA86FB862E2D3D2D472D5C2D6F2D1C
S11302B08C2D0E946D00A9CF813691F483EA90E0E1
S11302C00E944D00EF82D8867986CA86FB862E2D41
S11302D03D2D472D5C2D6F2D872D0E946D0095CFF0
S11302E0883791F484EB90E00E944D00EF82D88629
S11302F07986CA86FB862E2D3D2D472D5C2D6F2DCC
S11303008F2D0E946D0081CF803729F483B78966D1
S113031083BF632C7ACF8936F9F48CB790E08A3F97
S11303209105C4F48CB78B5F8CBF8CB71F928F93ED
S1130330A2ECB0E0BF93AF93BF92AF920E94F901D9
S1130340C5010E944D000F900F900F900F900F90D9
S11303500F905BCF2CBE59CF811120C081E0681271
S11303603AC08CB78630C0F08CB785508CBF8CB740
S11303701F928F93A5EDB0E0BF93AF93BF92AF925E
S11303800E94F901C5010E944D000F900F900F903B
S11303900F900F900F9039CF1CBE37CF8B36D9F406
S11303A08CB78630B0F08CB78A508CBF8CB71F9254
S11303B08F939F928F92BF92AF920E94F901C501D1
S11303C00E944D000F900F900F900F900F900F9080
S11303D01CCF1CBE1ACFEF82D8867986CA86FB86CC
S11303E02E2D3D2D472D5C2D6F2D8F2D0E946D00E0
S11303F00CCFAEE0B0E0EFEFF1E00C94A8040D896F
S11304001E8986E08C831A8309838FEF9FE79E837E
S11304108D83AE01475E5F4F6F89788DCE01019663
S11304200E941C022F813885F801E20FF31F10820D
S11304302E96E4E00C94C404ACE0B0E0E2E2F2E016
S11304400C949A047C016B018A01FC0117821682C8
S1130450838181FFBDC1CE0101964C01F7019381D7
S1130460F60193FD859193FF81916F01882309F42F
S1130470ABC1853239F493FD859193FF81916F016E
S1130480853229F4B70190E00E940404E7CF512C8F
S1130490312C20E02032A0F48B3269F030F4803229
S11304A059F0833269F420612CC08D3239F08033E5
S11304B039F4216026C02260246023C0286021C052
S11304C027FD27C030ED380F3A3078F426FF06C0F8
S11304D0FAE05F9E300D1124532E13C08AE0389E3B
S11304E0300D1124332E20620CC08E3221F426FDEF
S11304F06BC1206406C08C3611F4206802C08836B3
S113050041F4F60193FD859193FF81916F0181116F
S1130510C1CF982F9F7D9554933028F40C5F1F4FC3
S1130520FFE3F9830DC0833631F0833771F08335EF
S113053009F05BC022C0F801808189830E5F1F4FE0
S113054044244394512C540115C03801F2E06F0E39
S1130550711CF801A080B18026FF03C0652D70E0F6
S113056002C06FEF7FEFC5012C870E94F9032C01B5
S113057083012C852F77222E17C03801F2E06F0EED
S1130580711CF801A080B18026FF03C0652D70E0C6
S113059002C06FEF7FEFC5012C870E94EE032C0190
S11305A02C852068222E830123FC1BC0832D90E020
S11305B048165906B0F4B70180E290E00E940404A2
S11305C03A94F4CFF50127FC859127FE81915F01D0
S11305D0B70190E00E94040431103A94F1E04F1AFC
S11305E051084114510471F7E5C0843611F089367D
S11305F039F5F80127FF07C06081718182819381F9
S11306000C5F1F4F08C060817181072E000C880B9E
S1130610990B0E5F1F4F2F76722E97FF09C090958E
S11306208095709561957F4F8F4F9F4F2068722EF4
S11306302AE030E0A4010E943C04A82EA81844C07B
S1130640853729F42F7EB22E2AE030E025C0F22F20
S1130650F97FBF2E8F36C1F018F4883579F0B4C015
S1130660803719F0883721F0AFC02F2F2061B22EC8
S1130670B4FE0DC08B2D8460B82E09C024FF0AC0BF
S11306809F2F9660B92E06C028E030E005C020E117
S113069030E002C020E132E0F801B7FE07C060811B
S11306A07181828193810C5F1F4F06C060817181CB
S11306B080E090E00E5F1F4FA4010E943C04A82E2E
S11306C0A818FB2DFF777F2E76FE0BC0372D3E7FBB
S11306D0A51450F474FE0AC072FC08C0372D3E7E87
S11306E005C0BA2C372D03C0BA2C01C0B52C34FF79
S11306F00DC0FE01EA0DF11D8081803311F4397EB5
S113070009C032FF06C0B394B39404C0832F867823
S113071009F0B39433FD13C030FF06C05A2CB31450
S113072018F4530C5B18B32CB31468F4B70180E2CB
S113073090E03C870E940404B3943C85F5CFB31445
S113074010F43B1801C0312C34FF12C0B70180E310
S113075090E03C870E9404043C8532FF17C031FDC1
S113076003C088E790E002C088E590E0B7010CC0C0
S1130770832F867859F031FF02C08BE201C080E2FA
S113078037FD8DE2B70190E00E940404A51438F40B
S1130790B70180E390E00E9404045A94F7CFAA942E
S11307A0F401EA0DF11D8081B70190E00E94040478
S11307B0A110F5CF332009F451CEB70180E290E0C7
S11307C00E9404043A94F6CFF7018681978102C00F
S11307D08FEF9FEF2C96E2E10C94B604FC01059098
S11307E0615070400110D8F7809590958E0F9F1F2F
S11307F00895FC016150704001900110D8F7809574
S113080090958E0F9F1F08950F931F93CF93DF939F
S1130810FB01238121FD03C08FEF9FEF28C022FF3E
S113082016C046815781248135814217530744F409
S1130830A081B1819D012F5F3F4F318320838C9331
S1130840268137812F5F3F4F3783268310C0EB010A
S1130850092F182F0084F185E02D0995892BE1F6E5
S11308608E819F8101969F838E83812F902FDF91AC
S1130870CF911F910F910895FA01AA27283051F1C1
S1130880203181F1E8946F936E7F6E5F7F4F8F4FBD
S11308909F4FAF4FB1E03ED0B4E03CD0670F781F1C
S11308A0891F9A1FA11D680F791F8A1F911DA11D01
S11308B06A0F711D811D911DA11D20D009F468943A
S11308C03F912AE0269F11243019305D3193DEF6E2
S11308D0CF010895462F4770405D4193B3E00FD098
S11308E0C9F7F6CF462F4F70405D4A3318F0495D83
S11308F031FD4052419302D0A9F7EACFB4E0A69566
S11309009795879577956795BA95C9F70097610587
S1130910710508959B01AC010A2E069457954795DD
S113092037952795BA95C9F7620F731F841F951FD2
S1130930A01D08952F923F924F925F926F927F92E3
S11309408F929F92AF92BF92CF92DF92EF92FF92DB
S11309500F931F93CF93DF93CDB7DEB7CA1BDB0B87
S11309600FB6F894DEBF0FBECDBF09942A8839882C
S113097048885F846E847D848C849B84AA84B98433
S1130980C884DF80EE80FD800C811B81AA81B9813F
S1130990CE0FD11D0FB6F894DEBF0FBECDBFED0153
S10909A00895F894FFCF56
S11309A648656C6C6F210D0A004D6F76696E672081
S11309B6466F72776172642E2E2E0D0A004D6F7685
S11309C6696E6720526576657273652E2E2E0D0A42
S11309D6004D6F76696E672052696768742E2E2EF5
S11309E60D0A004D6F76696E67204C6566742E2E6F
S11309F62E0D0A0053746F7070696E672E2E2E0DBD
S1130A060A00416363656C65726174696F6E3A20AE
S1130A1625640D0A00446563656C65726174696FCB
S1130A266E3A2025640D0A00446563656C6572613F
S1110A3674696F6E3A2025642E2E2E0D0A0070
S9030000FC
