S01400006D6F746F72436F6E74726F6C2E73726563FE
S11300000C942A000C943F000C943F000C943F0085
S11300100C943F000C943F000C943F000C943F0060
S11300200C943F000C943F000C943F000C943F0050
S11300300C943F000C943F000C943F000C943F0040
S11300400C943F000C943F000C943F000C943F0030
S11300500C943F0011241FBECFE5D8E0DEBFCDBF16
S113006010E0A0E6B0E0E0E8F2E002C005900D92F6
S1130070A63DB107D9F70E94BF000C943E010C9431
S1130080000087E689B910BC86E880BD88E18AB99A
S113009008955D9BFECF8CB90895CF93DF93EC0157
S11300A08881882331F021960E9449008991811129
S11300B0FBCFDF91CF9108955F9907C0615071091B
S11300C081099109C9F780E00895672B682B692B92
S11300D011F08CB1089580E00895CF93DF9300D0A0
S11300E000D01F92CDB7DEB73A834B835C836D8318
S11300F0281307C088E088BB81E085BB83E082BB0E
S113010027C09A81981306C018BA82E085BB83E899
S113011082BB1EC09B81981306C081E085BB18BAC0
S113012083E082BB15C09C81981306C088E088BB1D
S113013015BA83E082BB0CC09D81981305C015BA23
S113014018BA83E082BB04C015BA18BA83E082BB34
S11301500F900F900F900F900F90DF91CF91089513
S113016087B38A6087BB84B3836084BB81B38268AE
S113017081BB909AC09A81B78A6A81BF0895CF9350
S1130180DF9300D000D01F92CDB7DEB767E670E0F2
S113019080E090E00E9441000E94B00080E690E080
S11301A00E944D0007E70F2EF3E7FF2EF02D0F2ED0
S11301B0F1E6DF2EF02D0F2EF4E6EF2EF02D18E7EA
S11301C060EA76E881E090E00E945C00873769F499
S11301D089E690E00E944D00202F3F2D4D2D5E2D8D
S11301E0612F802F0E946D00EBCF833769F48DE778
S11301F090E00E944D00202F3F2D4D2D5E2D612F4C
S11302008F2D0E946D00DCCF843669F481E990E083
S11302100E944D00202F3F2D4D2D5E2D612F8E2DE0
S11302200E946D00CDCF813669F483EA90E00E948C
S11302304D00202F3F2D4D2D5E2D612F8D2D0E94C1
S11302406D00BECF883769F484EB90E00E944D00C6
S1130250202F3F2D4D2D5E2D612F812F0E946D008B
S1130260AFCF82EC90E00E944D00202F3F2D4D2D0A
S11302705E2D612F812F0E946D00A2CFF894FFCFD5
S113028048656C6C6F210D0A004D6F76696E6720AE
S1130290466F72776172642E2E2E0D0A004D6F76B2
S11302A0696E6720526576657273652E2E2E0D0A6F
S11302B0004D6F76696E672052696768742E2E2E22
S11302C00D0A004D6F76696E67204C6566742E2E9C
S11302D02E0D0A0053746F7070696E672E2E2E0DEA
S11302E00A0044656661756C742053746174652EEC
S10902F02E2E0D0A000091
S9030000FC
