S01400006D6F746F72436F6E74726F6C2E73726563FE
S11300000C942A000C943F000C943F000C943F0085
S11300100C943F000C943F000C943F000C943F0060
S11300200C943F000C943F000C943F000C943F0050
S11300300C943F000C943F000C943F000C943F0040
S11300400C943F000C943F000C943F000C943F0030
S11300500C943F0011241FBECFE5D8E0DEBFCDBF16
S113006010E0A0E6B0E0E2E8F1E002C005900D92F5
S1130070AA3BB107D9F70E9488000C94BF000C94E6
S1130080000087E689B910BC86E880BD88E18AB99A
S113009008955F9BFECF8CB108955D9BFECF8CB914
S11300A00895CF93DF93EC018881882331F0219662
S11300B00E944D0089918111FBCFDF91CF9108956A
S11300C088E087BB83E084BB83E881BB909A8AEA9B
S11300D081BF089581E085BB88E088BB83E082BB53
S11300E0089586E085BB18BA83E882BB089588E04A
S11300F088BB15BA83E082BB089581E085BB18BA3A
S113010083E082BB089515BA18BA83E082BB0895D0
S113011067E670E080E090E00E9441000E94600089
S11301200E944900873739F480E690E00E9451002C
S11301300E946A00F5CF833739F484E790E00E9487
S113014051000E947100ECCF843639F488E890E0C5
S11301500E9451000E947700E3CF813639F48AE986
S113016090E00E9451000E947D00DACF8837C1F6EA
S11301708BEA90E00E9451000E948300D1CFF89452
S1050180FFCFAB
S11301824D6F76696E6720466F72776172642E2EA8
S11301922E0D0A004D6F76696E6720526576657280
S11301A273652E2E2E0D0A004D6F76696E672052EE
S11301B2696768742E2E2E0D0A004D6F76696E677C
S11301C2204C6566742E2E2E0D0A0053746F7070C7
S10D01D2696E672E2E2E0D0A000040
S9030000FC
